{
  "contractName": "Bitjob",
  "abi": [
    {
      "constant": true,
      "inputs": [],
      "name": "employer",
      "outputs": [
        {
          "name": "",
          "type": "address"
        }
      ],
      "payable": false,
      "stateMutability": "view",
      "type": "function"
    },
    {
      "constant": true,
      "inputs": [],
      "name": "idGenerator",
      "outputs": [
        {
          "name": "",
          "type": "uint256"
        }
      ],
      "payable": false,
      "stateMutability": "view",
      "type": "function"
    },
    {
      "inputs": [],
      "payable": false,
      "stateMutability": "nonpayable",
      "type": "constructor"
    },
    {
      "anonymous": false,
      "inputs": [
        {
          "indexed": false,
          "name": "desc",
          "type": "string"
        },
        {
          "indexed": false,
          "name": "company",
          "type": "string"
        },
        {
          "indexed": false,
          "name": "jobId",
          "type": "uint256"
        }
      ],
      "name": "LogEventAdded",
      "type": "event"
    },
    {
      "anonymous": false,
      "inputs": [
        {
          "indexed": false,
          "name": "buyer",
          "type": "address"
        },
        {
          "indexed": false,
          "name": "jobId",
          "type": "uint256"
        },
        {
          "indexed": false,
          "name": "numTickets",
          "type": "uint256"
        }
      ],
      "name": "LogBuyTickets",
      "type": "event"
    },
    {
      "anonymous": false,
      "inputs": [
        {
          "indexed": false,
          "name": "accountRefunded",
          "type": "address"
        },
        {
          "indexed": false,
          "name": "jobId",
          "type": "uint256"
        },
        {
          "indexed": false,
          "name": "numTickets",
          "type": "uint256"
        }
      ],
      "name": "LogGetRefund",
      "type": "event"
    },
    {
      "anonymous": false,
      "inputs": [
        {
          "indexed": false,
          "name": "employer",
          "type": "address"
        },
        {
          "indexed": false,
          "name": "balance",
          "type": "uint256"
        },
        {
          "indexed": false,
          "name": "jobID",
          "type": "uint256"
        }
      ],
      "name": "LogEndSale",
      "type": "event"
    },
    {
      "constant": false,
      "inputs": [
        {
          "name": "_company",
          "type": "string"
        },
        {
          "name": "_title",
          "type": "string"
        },
        {
          "name": "_description",
          "type": "string"
        },
        {
          "name": "_salary",
          "type": "uint256"
        }
      ],
      "name": "addjob",
      "outputs": [
        {
          "name": "",
          "type": "uint256"
        }
      ],
      "payable": false,
      "stateMutability": "nonpayable",
      "type": "function"
    },
    {
      "constant": true,
      "inputs": [
        {
          "name": "_jobId",
          "type": "uint256"
        }
      ],
      "name": "displayJob",
      "outputs": [
        {
          "name": "",
          "type": "string"
        },
        {
          "name": "",
          "type": "string"
        },
        {
          "name": "",
          "type": "string"
        },
        {
          "name": "",
          "type": "uint256"
        },
        {
          "name": "",
          "type": "address"
        },
        {
          "name": "",
          "type": "bool"
        }
      ],
      "payable": false,
      "stateMutability": "view",
      "type": "function"
    },
    {
      "constant": false,
      "inputs": [
        {
          "name": "_jobId",
          "type": "uint256"
        }
      ],
      "name": "applyJob",
      "outputs": [],
      "payable": true,
      "stateMutability": "payable",
      "type": "function"
    },
    {
      "constant": false,
      "inputs": [
        {
          "name": "_jobId",
          "type": "uint256"
        }
      ],
      "name": "endVacancy",
      "outputs": [],
      "payable": false,
      "stateMutability": "nonpayable",
      "type": "function"
    }
  ],
  "bytecode": "0x6080604052606460015534801561001557600080fd5b50336000806101000a81548173ffffffffffffffffffffffffffffffffffffffff021916908373ffffffffffffffffffffffffffffffffffffffff160217905550610e6c806100656000396000f3fe608060405260043610610078576000357c0100000000000000000000000000000000000000000000000000000000900463ffffffff16806317b595c21461007d5780632ad6ee431461029157806365962c68146102bf578063ae200e79146102fa578063e7bd92b914610351578063f70670801461037c575b600080fd5b34801561008957600080fd5b5061027b600480360360808110156100a057600080fd5b81019080803590602001906401000000008111156100bd57600080fd5b8201836020820111156100cf57600080fd5b803590602001918460018302840111640100000000831117156100f157600080fd5b91908080601f016020809104026020016040519081016040528093929190818152602001838380828437600081840152601f19601f8201169050808301925050505050505091929192908035906020019064010000000081111561015457600080fd5b82018360208201111561016657600080fd5b8035906020019184600183028401116401000000008311171561018857600080fd5b91908080601f016020809104026020016040519081016040528093929190818152602001838380828437600081840152601f19601f820116905080830192505050505050509192919290803590602001906401000000008111156101eb57600080fd5b8201836020820111156101fd57600080fd5b8035906020019184600183028401116401000000008311171561021f57600080fd5b91908080601f016020809104026020016040519081016040528093929190818152602001838380828437600081840152601f19601f8201169050808301925050505050505091929192908035906020019092919050505061054d565b6040518082815260200191505060405180910390f35b6102bd600480360360208110156102a757600080fd5b810190808035906020019092919050505061086f565b005b3480156102cb57600080fd5b506102f8600480360360208110156102e257600080fd5b8101908080359060200190929190505050610a22565b005b34801561030657600080fd5b5061030f610b1e565b604051808273ffffffffffffffffffffffffffffffffffffffff1673ffffffffffffffffffffffffffffffffffffffff16815260200191505060405180910390f35b34801561035d57600080fd5b50610366610b43565b6040518082815260200191505060405180910390f35b34801561038857600080fd5b506103b56004803603602081101561039f57600080fd5b8101908080359060200190929190505050610b49565b604051808060200180602001806020018781526020018673ffffffffffffffffffffffffffffffffffffffff1673ffffffffffffffffffffffffffffffffffffffff1681526020018515151515815260200184810384528a818151815260200191508051906020019080838360005b8381101561043f578082015181840152602081019050610424565b50505050905090810190601f16801561046c5780820380516001836020036101000a031916815260200191505b50848103835289818151815260200191508051906020019080838360005b838110156104a557808201518184015260208101905061048a565b50505050905090810190601f1680156104d25780820380516001836020036101000a031916815260200191505b50848103825288818151815260200191508051906020019080838360005b8381101561050b5780820151818401526020810190506104f0565b50505050905090810190601f1680156105385780820380516001836020036101000a031916815260200191505b50995050505050505050505060405180910390f35b60003373ffffffffffffffffffffffffffffffffffffffff166000809054906101000a900473ffffffffffffffffffffffffffffffffffffffff1673ffffffffffffffffffffffffffffffffffffffff16141515610613576040517f08c379a00000000000000000000000000000000000000000000000000000000081526004018080602001828103825260148152602001807f796f7520617265206e6f7420656d706c6f79657200000000000000000000000081525060200191505060405180910390fd5b6000600254905060026000815480929190600101919050555060c060405190810160405280878152602001868152602001858152602001848152602001600115158152602001600073ffffffffffffffffffffffffffffffffffffffff168152506003600083815260200190815260200160002060008201518160000190805190602001906106a3929190610d9b565b5060208201518160010190805190602001906106c0929190610d9b565b5060408201518160020190805190602001906106dd929190610d9b565b506060820151816003015560808201518160050160006101000a81548160ff02191690831515021790555060a08201518160050160016101000a81548173ffffffffffffffffffffffffffffffffffffffff021916908373ffffffffffffffffffffffffffffffffffffffff1602179055509050507f6e637657b1fd5f84bd0e8a10158b8573fbdf5ada5513a06c4e7fee2fb37f45db848783604051808060200180602001848152602001838103835286818151815260200191508051906020019080838360005b838110156107c05780820151818401526020810190506107a5565b50505050905090810190601f1680156107ed5780820380516001836020036101000a031916815260200191505b50838103825285818151815260200191508051906020019080838360005b8381101561082657808201518184015260208101905061080b565b50505050905090810190601f1680156108535780820380516001836020036101000a031916815260200191505b509550505050505060405180910390a180915050949350505050565b6000600360008381526020019081526020016000209050600073ffffffffffffffffffffffffffffffffffffffff168160050160019054906101000a900473ffffffffffffffffffffffffffffffffffffffff1673ffffffffffffffffffffffffffffffffffffffff1614151561094e576040517f08c379a00000000000000000000000000000000000000000000000000000000081526004018080602001828103825260148152602001807f6a6f6220697320616c72656164792074616b656e00000000000000000000000081525060200191505060405180910390fd5b600115158160050160009054906101000a900460ff1615151415156109db576040517f08c379a000000000000000000000000000000000000000000000000000000000815260040180806020018281038252600d8152602001807f6a6f6220697320436c6f7365640000000000000000000000000000000000000081525060200191505060405180910390fd5b308160050160016101000a81548173ffffffffffffffffffffffffffffffffffffffff021916908373ffffffffffffffffffffffffffffffffffffffff1602179055505050565b3373ffffffffffffffffffffffffffffffffffffffff166000809054906101000a900473ffffffffffffffffffffffffffffffffffffffff1673ffffffffffffffffffffffffffffffffffffffff16141515610ae6576040517f08c379a00000000000000000000000000000000000000000000000000000000081526004018080602001828103825260148152602001807f796f7520617265206e6f7420656d706c6f79657200000000000000000000000081525060200191505060405180910390fd5b600060036000838152602001908152602001600020905060008160050160006101000a81548160ff0219169083151502179055505050565b6000809054906101000a900473ffffffffffffffffffffffffffffffffffffffff1681565b60025481565b606080606060008060008060036000898152602001908152602001600020905080600001816001018260020183600301548460050160019054906101000a900473ffffffffffffffffffffffffffffffffffffffff168560050160009054906101000a900460ff16858054600181600116156101000203166002900480601f016020809104026020016040519081016040528092919081815260200182805460018160011615610100020316600290048015610c465780601f10610c1b57610100808354040283529160200191610c46565b820191906000526020600020905b815481529060010190602001808311610c2957829003601f168201915b50505050509550848054600181600116156101000203166002900480601f016020809104026020016040519081016040528092919081815260200182805460018160011615610100020316600290048015610ce25780601f10610cb757610100808354040283529160200191610ce2565b820191906000526020600020905b815481529060010190602001808311610cc557829003601f168201915b50505050509450838054600181600116156101000203166002900480601f016020809104026020016040519081016040528092919081815260200182805460018160011615610100020316600290048015610d7e5780601f10610d5357610100808354040283529160200191610d7e565b820191906000526020600020905b815481529060010190602001808311610d6157829003601f168201915b505050505093509650965096509650965096505091939550919395565b828054600181600116156101000203166002900490600052602060002090601f016020900481019282601f10610ddc57805160ff1916838001178555610e0a565b82800160010185558215610e0a579182015b82811115610e09578251825591602001919060010190610dee565b5b509050610e179190610e1b565b5090565b610e3d91905b80821115610e39576000816000905550600101610e21565b5090565b9056fea165627a7a72305820f3ceb941e4f84c117b94fe2328e9d223e4b40b156955b064404f637bda62261c0029",
  "source": "pragma solidity ^0.5.0;\n\ncontract Bitjob {\n\n    address payable public employer;\n    uint  JOB_TICKET = 100 wei;\n\n    uint public idGenerator;\n\n\n    struct job{\n        string company;\n        string title;\n        string description;\n        uint salary;\n        mapping(address => uint) employee;\n        bool isOpen;\n        address applicant;\n    }\n\n    mapping(uint => job) events;\n\n    event LogEventAdded(string desc, string company, uint jobId);\n    event LogBuyTickets(address buyer, uint jobId, uint numTickets);\n    event LogGetRefund(address accountRefunded, uint jobId, uint numTickets);\n    event LogEndSale(address employer, uint balance, uint jobID);\n  \n    modifier OnlyEmployer {\n        require(employer == msg.sender,\"you are not employer\");\n        _;\n    }\n\n    constructor() public {\n        employer = msg.sender;\n    }\n\n\n function addjob (string memory _company,\n                        string memory _title,\n                        string memory _description,\n                        uint _salary) \n                        OnlyEmployer public returns(uint){\n        uint jobId = idGenerator;\n        idGenerator++;\n        events[jobId] = job({description: _description, \n                                     company: _company,\n                                     title:_title,\n                                     salary:_salary,\n                                     applicant:address(0),\n                                     isOpen: true });\n\n        \n        emit LogEventAdded(_description,_company,jobId);\n        return (jobId);\n    }\n    \n     function displayJob(uint _jobId) public view returns(string memory,string memory,string memory,uint,address,bool){\n        \n        job storage ent = events[_jobId];\n\n        return(ent.company,\n               ent.title,\n               ent.description,\n               ent.salary,\n               ent.applicant,\n               ent.isOpen);\n    } \n\n    function applyJob(uint _jobId) public payable {\n        \n        job storage ent = events[_jobId];\n        \n        require(ent.applicant == address(0),\"job is already taken\");\n        require(ent.isOpen == true,\"job is Closed\");\n        \n        ent.applicant=address(this);\n        \n        \n\n    }\n    \n    function endVacancy(uint _jobId) OnlyEmployer public {\n        job storage ent = events[_jobId];\n        \n        ent.isOpen = false;    \n    }\n}\n",
  "sourcePath": "C:/Users/prepe/Desktop/Bitjob/bitjob-tutorial/contracts/employer.sol",
  "compiler": {
    "name": "solc",
    "version": "0.5.0+commit.1d4f565a.Emscripten.clang"
  },
  "schemaVersion": "3.0.15",
  "updatedAt": "2019-09-07T04:30:19.488Z",
  "devdoc": {
    "methods": {}
  },
  "userdoc": {
    "methods": {}
  }
}